{
  "contractName": "ERC20Token",
  "abi": [
    {
      "constant": true,
      "inputs": [],
      "name": "supply",
      "outputs": [
        {
          "name": "",
          "type": "uint256"
        }
      ],
      "payable": false,
      "stateMutability": "view",
      "type": "function"
    },
    {
      "constant": true,
      "inputs": [
        {
          "name": "",
          "type": "address"
        }
      ],
      "name": "balances",
      "outputs": [
        {
          "name": "",
          "type": "uint256"
        }
      ],
      "payable": false,
      "stateMutability": "view",
      "type": "function"
    },
    {
      "inputs": [
        {
          "name": "initialAccount",
          "type": "address"
        },
        {
          "name": "totalSupply",
          "type": "uint256"
        }
      ],
      "payable": false,
      "stateMutability": "nonpayable",
      "type": "constructor"
    },
    {
      "anonymous": false,
      "inputs": [
        {
          "indexed": false,
          "name": "from",
          "type": "address"
        },
        {
          "indexed": false,
          "name": "to",
          "type": "address"
        },
        {
          "indexed": false,
          "name": "tokens",
          "type": "uint256"
        }
      ],
      "name": "Transfer",
      "type": "event"
    },
    {
      "anonymous": false,
      "inputs": [
        {
          "indexed": false,
          "name": "owner",
          "type": "address"
        },
        {
          "indexed": false,
          "name": "spender",
          "type": "address"
        },
        {
          "indexed": false,
          "name": "tokens",
          "type": "uint256"
        }
      ],
      "name": "Approve",
      "type": "event"
    },
    {
      "constant": true,
      "inputs": [],
      "name": "totalSupply",
      "outputs": [
        {
          "name": "",
          "type": "uint256"
        }
      ],
      "payable": false,
      "stateMutability": "view",
      "type": "function"
    },
    {
      "constant": true,
      "inputs": [
        {
          "name": "account",
          "type": "address"
        }
      ],
      "name": "balanceOf",
      "outputs": [
        {
          "name": "",
          "type": "uint256"
        }
      ],
      "payable": false,
      "stateMutability": "view",
      "type": "function"
    },
    {
      "constant": true,
      "inputs": [
        {
          "name": "tokenOwner",
          "type": "address"
        },
        {
          "name": "spender",
          "type": "address"
        }
      ],
      "name": "allowance",
      "outputs": [
        {
          "name": "",
          "type": "uint256"
        }
      ],
      "payable": false,
      "stateMutability": "view",
      "type": "function"
    },
    {
      "constant": false,
      "inputs": [
        {
          "name": "to",
          "type": "address"
        },
        {
          "name": "value",
          "type": "uint256"
        }
      ],
      "name": "transfer",
      "outputs": [
        {
          "name": "success",
          "type": "bool"
        }
      ],
      "payable": false,
      "stateMutability": "nonpayable",
      "type": "function"
    },
    {
      "constant": false,
      "inputs": [
        {
          "name": "spender",
          "type": "address"
        },
        {
          "name": "value",
          "type": "uint256"
        }
      ],
      "name": "approve",
      "outputs": [
        {
          "name": "",
          "type": "bool"
        }
      ],
      "payable": false,
      "stateMutability": "nonpayable",
      "type": "function"
    },
    {
      "constant": false,
      "inputs": [
        {
          "name": "from",
          "type": "address"
        },
        {
          "name": "to",
          "type": "address"
        },
        {
          "name": "value",
          "type": "uint256"
        }
      ],
      "name": "transferFrom",
      "outputs": [
        {
          "name": "",
          "type": "bool"
        }
      ],
      "payable": false,
      "stateMutability": "nonpayable",
      "type": "function"
    }
  ],
  "bytecode": "0x608060405234801561001057600080fd5b50604051604080610c608339810180604052604081101561003057600080fd5b81019080805190602001909291908051906020019092919050505080600160008473ffffffffffffffffffffffffffffffffffffffff1673ffffffffffffffffffffffffffffffffffffffff16815260200190815260200160002081905550806000819055505050610bb9806100a76000396000f3fe60806040526004361061008e576000357c0100000000000000000000000000000000000000000000000000000000900463ffffffff168063047fc9aa14610093578063095ea7b3146100be57806318160ddd1461013157806323b872dd1461015c57806327e235e3146101ef57806370a0823114610254578063a9059cbb146102b9578063dd62ed3e1461032c575b600080fd5b34801561009f57600080fd5b506100a86103b1565b6040518082815260200191505060405180910390f35b3480156100ca57600080fd5b50610117600480360360408110156100e157600080fd5b81019080803573ffffffffffffffffffffffffffffffffffffffff169060200190929190803590602001909291905050506103b7565b604051808215151515815260200191505060405180910390f35b34801561013d57600080fd5b506101466105f7565b6040518082815260200191505060405180910390f35b34801561016857600080fd5b506101d56004803603606081101561017f57600080fd5b81019080803573ffffffffffffffffffffffffffffffffffffffff169060200190929190803573ffffffffffffffffffffffffffffffffffffffff16906020019092919080359060200190929190505050610600565b604051808215151515815260200191505060405180910390f35b3480156101fb57600080fd5b5061023e6004803603602081101561021257600080fd5b81019080803573ffffffffffffffffffffffffffffffffffffffff1690602001909291905050506108a9565b6040518082815260200191505060405180910390f35b34801561026057600080fd5b506102a36004803603602081101561027757600080fd5b81019080803573ffffffffffffffffffffffffffffffffffffffff1690602001909291905050506108c1565b6040518082815260200191505060405180910390f35b3480156102c557600080fd5b50610312600480360360408110156102dc57600080fd5b81019080803573ffffffffffffffffffffffffffffffffffffffff1690602001909291908035906020019092919050505061090a565b604051808215151515815260200191505060405180910390f35b34801561033857600080fd5b5061039b6004803603604081101561034f57600080fd5b81019080803573ffffffffffffffffffffffffffffffffffffffff169060200190929190803573ffffffffffffffffffffffffffffffffffffffff169060200190929190505050610b06565b6040518082815260200191505060405180910390f35b60005481565b60008073ffffffffffffffffffffffffffffffffffffffff168373ffffffffffffffffffffffffffffffffffffffff16141515156103f457600080fd5b6000600260008573ffffffffffffffffffffffffffffffffffffffff1673ffffffffffffffffffffffffffffffffffffffff16815260200190815260200160002060003373ffffffffffffffffffffffffffffffffffffffff1673ffffffffffffffffffffffffffffffffffffffff1681526020019081526020016000205414151561047f57600080fd5b81600160003373ffffffffffffffffffffffffffffffffffffffff1673ffffffffffffffffffffffffffffffffffffffff16815260200190815260200160002054101515156104cd57600080fd5b81600260008573ffffffffffffffffffffffffffffffffffffffff1673ffffffffffffffffffffffffffffffffffffffff16815260200190815260200160002060003373ffffffffffffffffffffffffffffffffffffffff1673ffffffffffffffffffffffffffffffffffffffff168152602001908152602001600020819055507f6e11fb1b7f119e3f2fa29896ef5fdf8b8a2d0d4df6fe90ba8668e7d8b2ffa25e338484604051808473ffffffffffffffffffffffffffffffffffffffff1673ffffffffffffffffffffffffffffffffffffffff1681526020018373ffffffffffffffffffffffffffffffffffffffff1673ffffffffffffffffffffffffffffffffffffffff168152602001828152602001935050505060405180910390a16001905092915050565b60008054905090565b600081600260003373ffffffffffffffffffffffffffffffffffffffff1673ffffffffffffffffffffffffffffffffffffffff16815260200190815260200160002060008673ffffffffffffffffffffffffffffffffffffffff1673ffffffffffffffffffffffffffffffffffffffff168152602001908152602001600020541015151561068d57600080fd5b81600160008673ffffffffffffffffffffffffffffffffffffffff1673ffffffffffffffffffffffffffffffffffffffff16815260200190815260200160002054101515156106db57600080fd5b81600260003373ffffffffffffffffffffffffffffffffffffffff1673ffffffffffffffffffffffffffffffffffffffff16815260200190815260200160002060008673ffffffffffffffffffffffffffffffffffffffff1673ffffffffffffffffffffffffffffffffffffffff1681526020019081526020016000206000828254039250508190555081600160008673ffffffffffffffffffffffffffffffffffffffff1673ffffffffffffffffffffffffffffffffffffffff1681526020019081526020016000206000828254039250508190555081600160008573ffffffffffffffffffffffffffffffffffffffff1673ffffffffffffffffffffffffffffffffffffffff168152602001908152602001600020600082825401925050819055507fddf252ad1be2c89b69c2b068fc378daa952ba7f163c4a11628f55a4df523b3ef848484604051808473ffffffffffffffffffffffffffffffffffffffff1673ffffffffffffffffffffffffffffffffffffffff1681526020018373ffffffffffffffffffffffffffffffffffffffff1673ffffffffffffffffffffffffffffffffffffffff168152602001828152602001935050505060405180910390a1600190509392505050565b60016020528060005260406000206000915090505481565b6000600160008373ffffffffffffffffffffffffffffffffffffffff1673ffffffffffffffffffffffffffffffffffffffff168152602001908152602001600020549050919050565b600081600160003373ffffffffffffffffffffffffffffffffffffffff1673ffffffffffffffffffffffffffffffffffffffff16815260200190815260200160002054101515156109c3576040517f08c379a00000000000000000000000000000000000000000000000000000000081526004018080602001828103825260108152602001807f53756666696369656e742066756e64730000000000000000000000000000000081525060200191505060405180910390fd5b81600160003373ffffffffffffffffffffffffffffffffffffffff1673ffffffffffffffffffffffffffffffffffffffff1681526020019081526020016000206000828254039250508190555081600160008573ffffffffffffffffffffffffffffffffffffffff1673ffffffffffffffffffffffffffffffffffffffff168152602001908152602001600020600082825401925050819055507fddf252ad1be2c89b69c2b068fc378daa952ba7f163c4a11628f55a4df523b3ef338484604051808473ffffffffffffffffffffffffffffffffffffffff1673ffffffffffffffffffffffffffffffffffffffff1681526020018373ffffffffffffffffffffffffffffffffffffffff1673ffffffffffffffffffffffffffffffffffffffff168152602001828152602001935050505060405180910390a16001905092915050565b6000600260008373ffffffffffffffffffffffffffffffffffffffff1673ffffffffffffffffffffffffffffffffffffffff16815260200190815260200160002060008473ffffffffffffffffffffffffffffffffffffffff1673ffffffffffffffffffffffffffffffffffffffff1681526020019081526020016000205490509291505056fea165627a7a7230582034a9ba1cdbdf251a5c13bb4e91bfb882f86002953baac34aa119c586ddcc980a0029",
  "source": "pragma solidity ^0.5.0;\r\n\r\nimport \"./Migrations.sol\";\r\nimport \"./IERC20.sol\";\r\n\r\ncontract ERC20Token is IERC20{\r\n    // default - 0\r\n    uint256 public supply;\r\n\r\n    // 0x13243234.. -> 34392849 BEST TOKENS\r\n    mapping(address => uint256) public balances;\r\n\r\n    // A -> \"approving\" -> B to spend some \"value\"\r\n    // B is sending from A -> C (transferFrom)\r\n    // ((allowance - > spender) -> tokenOwner) -> value\r\n    mapping(address => mapping(address => uint256)) allowances;\r\n\r\n    // gas - how much of proceeds to execute\r\n    // gasPrice - how much we willing for an instance of gas\r\n    // gasPrice * gas\r\n\r\n    event Transfer(address from, address to, uint256 tokens);\r\n    event Approve(address owner, address spender, uint256 tokens);\r\n\r\n    constructor(address initialAccount, uint256 totalSupply) public {\r\n        balances[initialAccount] = totalSupply;\r\n        supply = totalSupply;\r\n    }\r\n\r\n    function totalSupply() external view returns (uint256) { // 0 gas\r\n        return supply;\r\n    }\r\n\r\n    function balanceOf(address account) external view returns (uint256) {\r\n        return balances[account];\r\n    }\r\n\r\n    function allowance(address tokenOwner, address spender) external view returns (uint256) {\r\n        return allowances[spender][tokenOwner];\r\n    }\r\n\r\n    // we want to send from caller -> to  = value\r\n    // transfer -\r\n    function transfer(address to, uint256 value) external returns (bool success) {\r\n        // \"making sure\" everything is ok\r\n        require(balances[msg.sender] >= value, \"Sufficient funds\");\r\n\r\n        // msg.sender contract caller\r\n        balances[msg.sender] -= value;\r\n        balances[to] += value;\r\n\r\n        emit Transfer(msg.sender, to, value);\r\n        return true;\r\n    }\r\n\r\n    // tx -> contract\r\n    // failed\r\n    // revert -> my code thrown err\r\n    // require = false  => gas back\r\n    function approve(address spender, uint256 value) external returns (bool) {\r\n        require(spender != address(0));\r\n        require(allowances[spender][msg.sender] == 0);\r\n        require(balances[msg.sender] >= value);\r\n\r\n        allowances[spender][msg.sender] = value;\r\n\r\n        emit Approve(msg.sender, spender, value);\r\n        return true;\r\n    }\r\n\r\n    // approve tokens\r\n    // sending transferFrom\r\n    function transferFrom (address from/*owner*/, address to, uint256 value) external returns (bool) {\r\n        require(allowances[msg.sender][from] >= value);\r\n        require(balances[from] >= value);\r\n\r\n        allowances[msg.sender][from] -= value;\r\n        balances[from] -= value;\r\n\r\n        balances[to] += value;\r\n\r\n        emit Transfer(from, to, value);\r\n        return true;\r\n    }\r\n}\r\n\r\n// changes\r\n\r\n// @TODO COMPILE [check]\r\n// @TODO MIGRATE [check] (deploy on local net, testnet)\r\n// @TODO TESTING\r\n// @TODO CREATING CUSTOM BEST TOKEN\r\n",
  "sourcePath": "C:/Users/Filip/Desktop/BEST TOKEN/contracts/ERC20.sol",
  "compiler": {
    "name": "solc",
    "version": "0.5.0+commit.1d4f565a.Emscripten.clang"
  },
  "schemaVersion": "3.0.9",
  "updatedAt": "2019-07-24T09:29:37.349Z",
  "devdoc": {
    "methods": {}
  },
  "userdoc": {
    "methods": {}
  }
}